:100000000C945D000C9485000C9485000C94850084
:100010000C9485000C9485000C9485000C9485004C
:100020000C9485000C9485000C9485000C948C0431
:100030000C9485000C9485000C9485000C9485002C
:100040000C9442040C9485000C9410040C94EA0364
:100050000C9485000C9485000C9485000C9485000C
:100060000C9485000C94850000000008000201003B
:100070000003040700000000000000000000000072
:10008000250028002B0000000000240027002A0083
:10009000040404040404040402020202020203032E
:1000A0000303030301020408102040800102040836
:1000B0001020010204081020080711241FBECFEFF2
:1000C000D8E0DEBFCDBF11E0A0E0B1E0E8E1FCE1A7
:1000D00002C005900D92A239B107D9F722E0A2E93A
:1000E000B1E001C01D92A336B207E1F710E0CDE503
:1000F000D0E004C02197FE010E94DF0CCC35D1076F
:10010000C9F70E94D4070C940A0E0C94000090E0EA
:10011000FC01EC55FF4F249180579F4FFC018491C7
:10012000882399F090E0880F991FFC01EA57FF4F50
:10013000A591B491FC01E458FF4F859194918FB73C
:10014000F894EC91E22BEC938FBF0895AF92BF929D
:10015000CF92DF92EF92FF920F931F93CF93DF9393
:100160006C017B018B01040F151FEB015E01AE18C2
:10017000BF08C017D10759F06991D601ED91FC91E4
:100180000190F081E02DC6010995892B79F7C50111
:10019000DF91CF911F910F91FF90EF90DF90CF9063
:1001A000BF90AF900895FC01538D448D252F30E012
:1001B000842F90E0821B930B541710F0CF96089574
:1001C00001970895FC01918D828D981761F0A28DA1
:1001D000AE0FBF2FB11D5D968C91928D9F5F9F7367
:1001E000928F90E008958FEF9FEF0895FC01918D1D
:1001F000828D981731F0828DE80FF11D858D90E08A
:1002000008958FEF9FEF0895FC01918D228D892F26
:1002100090E0805C9F4F821B91098F73992708950E
:100220008BE991E00E94040121E0892B09F420E090
:10023000822F089580E090E0892B29F00E94100120
:1002400081110C9400000895FC01A48DA80FB92F12
:10025000B11DA35ABF4F2C91848D90E001968F73EE
:100260009927848FA689B7892C93A089B1898C910D
:10027000837080648C93938D848D981306C002885C
:10028000F389E02D80818F7D80830895EF92FF9226
:100290000F931F93CF93DF93EC0181E0888F9B8DA9
:1002A0008C8D98131AC0E889F989808185FF15C063
:1002B0009FB7F894EE89FF896083E889F989808186
:1002C0008370806480839FBF81E090E0DF91CF9155
:1002D0001F910F91FF90EF900895F62E0B8D10E077
:1002E0000F5F1F4F0F731127E02E8C8D8E110CC0E6
:1002F0000FB607FCFACFE889F989808185FFF5CF31
:10030000CE010E942401F1CFEB8DEC0FFD2FF11DEA
:10031000E35AFF4FF0829FB7F8940B8FEA89FB896D
:1003200080818062CFCFCF93DF93EC01888D8823CB
:10033000B9F0AA89BB89E889F9898C9185FD03C048
:10034000808186FD0DC00FB607FCF7CF8C9185FF2D
:10035000F2CF808185FFEDCFCE010E942401E9CF4D
:10036000DF91CF91089590E0FC01E859FF4F24916F
:10037000FC01EC55FF4F3491FC01E057FF4FE49135
:10038000EE23C9F0222339F0233001F1A8F4213003
:1003900019F1223029F1F0E0EE0FFF1FE458FF4F72
:1003A000A591B4918FB7F894EC91611126C0309566
:1003B0003E233C938FBF08952730A9F02830C9F021
:1003C000243049F7809180008F7D03C080918000A8
:1003D0008F7780938000DFCF84B58F7784BDDBCFAC
:1003E00084B58F7DFBCF8091B0008F778093B00074
:1003F000D2CF8091B0008F7DF9CF3E2BDACF8E30F7
:1004000008F08E508770806480937C0080917A0021
:10041000806480937A0080917A0086FDFCCF809181
:1004200078009091790008953FB7F89480919701F2
:1004300090919801A0919901B0919A0126B5A89B3D
:1004400005C02F3F19F00196A11DB11D3FBFBA2F66
:10045000A92F982F8827BC01CD01620F711D811D26
:10046000911D42E0660F771F881F991F4A95D1F7AB
:100470000895089590E080E00895CF93DF93EC0114
:1004800060E08E810E94B30161E08E810E94B30121
:1004900060E08E810E94B3018BE891E00197F1F753
:1004A000DF91CF910895CF92DF92EF92FF920F9359
:1004B0001F93CF93DF936C017C0187E0E80EF11C62
:1004C000D0E0C0E0062F10E0B8010C2E02C07595F8
:1004D00067950A94E2F76170F70181917F010E94AC
:1004E000B3012196C430D10579F7C601DF91CF91D0
:1004F0001F910F91FF90EF90DF90CF900C943D02F1
:10050000CF92DF92EF92FF920F931F93CF93DF93DF
:10051000EC01F62E642F8C810E94B3018D818F3FF8
:1005200019F060E00E94B3010F2D10E08F8584FF69
:1005300025C06E0187E0C80ED11CF12CE12CB8015A
:100540000E2C02C0759567950A94E2F76170F6016A
:1005500081916F010E94B301FFEFEF1AFF0A88E05B
:10056000E816F10461F7CE01DF91CF911F910F9151
:10057000FF90EF90DF90CF900C943D02B80184E0A3
:10058000759567958A95E1F7CE010E9453026F2D0C
:10059000CE01DF91CF911F910F91FF90EF90DF90EF
:1005A000CF900C94530240E0682F87E492E00C94C3
:1005B0008002CF93DF93613029F0909156029860CA
:1005C0009093560260935A0210925B0290E49093CB
:1005D0005C0280935D02805C80935E0280914B029E
:1005E0000E94870080914C028F3F11F00E9487008B
:1005F00080914D020E948700C7E4D2E09E012754FB
:1006000032408091560284FD0AC084E090E0219639
:10061000281739073CF48E810E948700EFCF88E0CD
:1006200090E0F5CF8BE39DE00197F1F760E08091DA
:100630004B020E94B30160E080914D020E94B30121
:1006400080914C028F3F19F060E00E94B3018091CD
:10065000560284FD39C063E087E492E00E945302B1
:10066000CBE4D6E4CE010197F1F763E087E492E0B2
:100670000E9453022197F1F763E087E492E00E9421
:10068000530283E592E00197F1F762E087E492E09C
:100690000E9453028091560280620E94D30284E03D
:1006A000809357028CE00E94D30281E00E94D30223
:1006B0008BE39FE10197F1F782E08093580286E097
:1006C000DF91CF910C94D30280620E94D3028BE41D
:1006D00096E40197F1F78091560280620E94D3025E
:1006E00083E592E00197F1F78091560280620E94C3
:1006F000D302D0CF90915A02691710F06FEF690FB3
:10070000E62FF0E0E95BFD4F9489890F80680C9437
:10071000D30241E00E94800281E090E00895FB0155
:1007200001900020E9F73197AF01461B570BDC0120
:10073000ED91FC910280F381E02D09948F929F92BC
:10074000AF92BF92EF92FF920F931F93CF93DF93DD
:10075000CDB7DEB7A1970FB6F894DEBF0FBECDBF01
:100760007C01FA01CB0119A2223008F42AE08E01A3
:100770000F5D1F4F822E912CB12CA12CBF01A50122
:1007800094010E949E0CF901CA016A300CF5605D6B
:10079000D8016E938D01232B242B252B79F790E024
:1007A00080E0109721F0BD01C7010E948F03A19640
:1007B0000FB6F894DEBF0FBECDBFDF91CF911F9172
:1007C0000F91FF90EF90BF90AF909F908F90089502
:1007D000695CDECF1F920F920FB60F9211242F93F8
:1007E0003F934F935F936F937F938F939F93AF93B9
:1007F000BF93EF93FF938BE991E00E942401FF9157
:10080000EF91BF91AF919F918F917F916F915F9188
:100810004F913F912F910F900FBE0F901F90189501
:100820001F920F920FB60F9211242F938F939F93C5
:10083000EF93FF93E091AB01F091AC018081E091E7
:10084000B101F091B20182FD1BC090818091B40191
:100850008F5F8F732091B501821741F0E091B40151
:10086000F0E0E556FE4F958F8093B401FF91EF9134
:100870009F918F912F910F900FBE0F901F90189501
:100880008081F4CF1F920F920FB60F9211242F93F5
:100890003F938F939F93AF93BF93809193019091D8
:1008A0009401A0919501B09196013091920123E0BD
:1008B000230F2D3758F50196A11DB11D20939201EC
:1008C0008093930190939401A0939501B093960126
:1008D0008091970190919801A0919901B0919A010E
:1008E0000196A11DB11D8093970190939801A0934B
:1008F0009901B0939A01BF91AF919F918F913F91D0
:100900002F910F900FBE0F901F90189526E8230F80
:100910000296A11DB11DD2CF1F920F920FB60F925A
:1009200011242F923F924F925F926F927F928F92FB
:100930009F92AF92BF92CF92DF92EF92FF920F936E
:100940001F932F933F934F935F936F937F938F9357
:100950009F93AF93BF93EF93FF93CF93DF9300D019
:1009600000D0CDB7DEB7F89420913802309139022B
:100970003A832983F12CE12CD12CC12CA981BA8195
:1009800011968C9111978C151D04C1F0BCF0129634
:10099000ED91FC91EE0DFF1DFC83EB8380810E94A5
:1009A000FF01AB81BC8119969C938E931897BFEF82
:1009B000CB1ADB0AECE3EE0EF11CE0CF312C212C3C
:1009C00010E000E050E6852E5AEE952EA12CB12CB9
:1009D000A981BA8111968C9111978017110609F09F
:1009E0000CF4EAC11296ED91FC91E20DF31DFC832B
:1009F000EB8340A851A862A873A8808D918DA28D29
:100A0000B38D480E591E6A1E7B1E40AA51AA62AAC7
:100A100073AA84899589A689B7897201E81AF90AA7
:100A2000868597850C97978786878685978597FD16
:100A3000C2C086859785873F99400CF0BFC0AB81C7
:100A4000BC811E968D919C91EB81FC819787868756
:100A500080859185C0ACD1AC8C159D05CCF4828588
:100A6000938565E070E00E948A0CCB01880F991F86
:100A7000680F791F6E157F055CF42085318586A986
:100A800097A92817390724F48085918597AB86AB01
:100A9000AB81BC8118968D919C911997C816D90687
:100AA0009CF418962D913C911997D4968D919C9118
:100AB000D5978217930744F418968D919C911997B6
:100AC000D5969C938E93D497BBEFEB16F1040CF460
:100AD000ABC0EB81FC8180859185C816D9060CF0EE
:100AE000A3C084858111A0C08285938565E070E0F4
:100AF0000E948A0CCB01880F991F680F791F6E1511
:100B00007F050CF091C021E0248784899589A6890E
:100B1000B789F201E81BF90BAB81BC811B96FC93F2
:100B2000EE931A97FD01448A558A668A778A83ADC7
:100B3000882371F013AE7C96CD01C096AB81BC8149
:100B40001A962D913C91219331938E179F07B1F7FF
:100B5000EB81FC8182AD8823A1F112AE21E023AFAD
:100B6000AB81BC8112968D919C91139797FD08C023
:100B70001C962C9161E0211101C060E00E94B3013C
:100B8000EB81FC81E480F580F7FCECC086859785DD
:100B90006AE070E00E948A0C7C836B838E2D0E9439
:100BA00087002B813C81232B09F0ACC060E08E2DA7
:100BB0000E94B301D7C090E080E046CF86EF99E075
:100BC00043CFEB81FC817C964B815C81425D5F4F22
:100BD00030E020E08281938181939193280F391F27
:100BE0004E175F07B9F7AB81BC811A968D919C9126
:100BF0001B979F969C938E939E97820F931F6AE0FC
:100C000070E00E94760C9B0150E040E0C501B40109
:100C10000E94C00CEB81FC813783268321E025876D
:100C200086EF99E097878687AB81BC8118968D9176
:100C30009C9119978C159D053CF51C968C911C97E1
:100C4000882311F11C961C921C97D6964D915C91AD
:100C5000D797D4962D913C91D597241B350B53965D
:100C60003C932E93529752968D919C9197FD0196AD
:100C700095958795840F951FEB81FC8191AF80AF8F
:100C800095AB84AB97AB86ABF5ECEF16F9E0FF06BE
:100C90000CF466CFAB81BC8150968D919C9151979D
:100CA000D9969C938E93D897E0E0F2E0D596FC938A
:100CB000EE93D497D796FC93EE93D69754964D9295
:100CC0005D926D927C925797E1E0DA96EC93DA9719
:100CD000DB961C92DB971D961C921D9717961C9213
:100CE0001E92169728E532E01B963C932E931A9796
:100CF0001C961C921C9784E690E053969C938E93CE
:100D000052972ECF8B819C818F3F910511F461E02A
:100D10004ECFF701FF27E859FF4FE491E33071F11F
:100D200050F4E130D1F0E23019F1AB81BC81A03850
:100D3000B1056CF73BCFE73069F1E830A1F1E43061
:100D4000A1F7809180008062809380002B813C819C
:100D500030938B0020938A0005C084B5806884BDE1
:100D60009B8197BD0F5F1F4FBCE32B0E311C30CE14
:100D700084B5806284BDAB81A8BDF4CF8091800032
:100D8000806880938000EB81FC81F0938900E09380
:100D90008800E8CF8091B00080688093B0003B81EC
:100DA0003093B300DFCF8091B00080628093B000B9
:100DB0008B818093B400D6CF81E0E981FA8180876E
:100DC00078940F900F900F900F90DF91CF91FF913B
:100DD000EF91BF91AF919F918F917F916F915F91B3
:100DE0004F913F912F911F910F91FF90EF90DF90C6
:100DF000CF90BF90AF909F908F907F906F905F90BB
:100E00004F903F902F900F900FBE0F901F9018950E
:100E100010929E0110929D0188EE93E0A0E0B0E058
:100E200080939F019093A001A093A101B093A20190
:100E30008AE091E090939C0180939B0185EC90E087
:100E40009093A8018093A70184EC90E09093AA016D
:100E50008093A90180EC90E09093AC018093AB016A
:100E600081EC90E09093AE018093AD0182EC90E034
:100E70009093B0018093AF0186EC90E09093B20123
:100E80008093B1011092B4011092B5011092B60195
:100E90001092B70110924A02109249028CE191E03F
:100EA00090934802809347028CE080934B028FEF2F
:100EB00080934C028BE080934D0285E080934E023C
:100EC00084E080934F0283E08093500282E080931D
:100ED0005102109252021092530210925402109238
:100EE00055021092560261E080E10E94D9021092F0
:100EF00044021092430282E090E090934602809375
:100F000045028AE392E0909339028093380281E0AF
:100F100080933B028CE390E00E94E50CFC018EE0A4
:100F200090E0918380838FEF9FEF938382839583FB
:100F3000848382E090E0A0E0B0E0808F918FA28F68
:100F4000B38FDF015C96CF01C0961D921D928A1768
:100F50009B07D9F71586178216828EEE92E093874B
:100F60008287148610AA11AA12AA13AA148A158AB3
:100F7000168A178A80E092E095AB84AB97AB86AB7C
:100F800086E292E0918B808B91AF80AF84E690E017
:100F9000938B828B81E082AF13AE17861686F09317
:100FA0003D02E0933C020895789484B5826084BD4C
:100FB00084B5816084BD85B5826085BD85B581605D
:100FC00085BD80916E00816080936E0010928100DB
:100FD0008091810082608093810080918100816096
:100FE0008093810080918000816080938000809157
:100FF000B10084608093B1008091B00081608093E3
:10100000B00080917A00846080937A0080917A00A9
:10101000826080937A0080917A00816080937A0068
:1010200080917A00806880937A001092C100E091EC
:10103000AB01F091AC0182E08083E091A701F091D7
:10104000A8011082E091A901F091AA018FEC8083A0
:101050001092B301E091AF01F091B00186E080837E
:10106000E091AD01F091AE01808180618083E091DB
:10107000AD01F091AE01808188608083E091AD0187
:10108000F091AE01808180688083E091AD01F091A4
:10109000AE0180818F7D808364E084E10E94D9026B
:1010A000E0913C02F0913D0281E090E091838083E9
:1010B0008DE090E093838283F89486E292E0918BB6
:1010C000808B91AF80AF7894F12CE12CD12CC12C86
:1010D00080913B028C151D0431F12CF1C0913C0232
:1010E000D0913D02CE0DDF1D8A819B8197FD06C008
:1010F0000E94870060E08A810E94B3018C819D81FB
:1011000097FD0AC00E948700CC818C2F0E94870027
:1011100060E08C2F0E94B3012FEFC21AD20A8CE339
:10112000E80EF11CD5CF0E9414026053784F8F4F08
:101130009F4F60933E0270933F02809340029093D2
:1011400041021092420210923A02109280001092D4
:1011500082008CE0809381008CE790E0909389007E
:101160008093880082E080936F00789464E271E05D
:101170008BE991E00E948F0360E471E08BE991E0DC
:101180000E948F0360E085E00E947A0363E471E0CF
:1011900087E492E00E948F03C0E0D0E0E0913C023F
:1011A000F0913D02C680D780F894858515867894A5
:1011B000882309F45DC06EE471E08BE991E00E9440
:1011C0008F0360E471E08BE991E00E948F0361E698
:1011D00071E08BE991E00E948F030D2C000CEE086A
:1011E000FF082AE0B701A601F7FE0DC06DE28BE90A
:1011F00091E00E94460144275527BA014C195D0928
:101200006E097F092AE08BE991E00E949E0360E469
:1012100071E08BE991E00E948F0361E083E00E941E
:101220007A0367E671E087E492E00E948F0362E050
:1012300085E00E947A0361E671E087E492E00E9413
:101240008F032AE0B701A601F7FE0EC041E06DE270
:1012500087E492E00E94800244275527BA014C1986
:101260005D096E097F092AE087E492E00E949E03EF
:1012700063E080E00E947A0380E00E94FF01BC01ED
:10128000990F880B990B0E944F0B20E030E040E84B
:101290005AE30E94040C20E030E44CE955E40E943B
:1012A000040C20E030E040E251E40E94AC0A6B0103
:1012B0007C014B015C0168E771E087E492E00E94E9
:1012C0008F03A7019601C701B6010E94710C66E861
:1012D00071E081111AC026013701E89477F82FEFE9
:1012E0003FEF4FE75FE7C301B2010E94710C81112C
:1012F0003FC02FEF3FEF4FE75FE7C301B2010E940E
:10130000A70A1816ACF56AE871E087E492E00E943B
:101310008F030E9414024B015C0184E1C82ED12C82
:10132000E12CF12C0E941402681979098A099B09A1
:10133000683E734081059105A8F321E0C21AD108E7
:10134000E108F10888EE880E83E0981EA11CB11C0C
:10135000C114D104E104F10429F7209709F41ECF48
:101360000E941001882309F419CF0E94000016CFB3
:101370002FEF3FEF4FE75FE4C701B6010E94FF0B7D
:1013800018161CF46EE871E0C0CF2FEF3FEF4FE767
:101390005FECC701B6010E94A70A87FDF3CF20E0EA
:1013A00030E0A901C701B6010E94A70A87FF0CC05F
:1013B00041E06DE287E492E00E948002460157011D
:1013C000B7FAB094B7F8B0942AE037ED43EA5BE39C
:1013D000C501B4010E943B0A4B015C010E941E0B37
:1013E0006B017C010E944D0B9B01AC01C501B40156
:1013F0000E943A0A4B015C012AE0B701A60187E48A
:1014000092E00E949E0341E06EE287E492E00E9437
:10141000800220E030E040E251E4C501B4010E94C6
:10142000040C4B015C010E941E0B6B01F12CE12CA2
:101430002AE0B701A60187E492E00E949E03C7015B
:10144000B6010E944D0B9B01AC01C501B4010E9485
:101450003A0A20E030E040E251E40E94040C0E948D
:101460001E0BAB0170E060E02AE087E492E00E948E
:101470009E034FCF5058BB27AA270E94520A0C94B4
:10148000C50B0E94B70B38F00E94BE0B20F039F458
:101490009F3F19F426F40C94B40B0EF4E095E7FB8F
:1014A0000C94AE0BE92F0E94D60B58F3BA176207C3
:1014B00073078407950720F079F4A6F50C94F80BD0
:1014C0000EF4E0950B2EBA2FA02D0B01B90190015F
:1014D0000C01CA01A0011124FF27591B99F0593FA3
:1014E00050F4503E68F11A16F040A22F232F342FEB
:1014F0004427585FF3CF469537952795A795F04039
:101500005395C9F77EF41F16BA0B620B730B840B4D
:10151000BAF09150A1F0FF0FBB1F661F771F881F05
:10152000C2F70EC0BA0F621F731F841F48F487955D
:1015300077956795B795F7959E3F08F0B0CF93954F
:10154000880F08F09927EE0F9795879508950E94C8
:101550008A0B08F481E008950E94C00A0C94C50B20
:101560000E94BE0B58F00E94B70B40F029F45F3F79
:1015700029F00C94AE0B51110C94F90B0C94B40B94
:101580000E94D60B68F39923B1F3552391F3951B71
:10159000550BBB27AA2762177307840738F09F5F94
:1015A0005F4F220F331F441FAA1FA9F335D00E2E01
:1015B0003AF0E0E832D091505040E695001CCAF76E
:1015C0002BD0FE2F29D0660F771F881FBB1F261731
:1015D00037074807AB07B0E809F0BB0B802DBF0108
:1015E000FF2793585F4F3AF09E3F510578F00C94D7
:1015F000AE0B0C94F90B5F3FE4F3983ED4F3869561
:1016000077956795B795F7959F5FC9F7880F911DF7
:101610009695879597F90895E1E0660F771F881FE3
:10162000BB1F621773078407BA0720F0621B730B96
:10163000840BBA0BEE1F88F7E09508950E94DE0B2D
:1016400088F09F5798F0B92F9927B751B0F0E1F083
:10165000660F771F881F991F1AF0BA95C9F714C033
:10166000B13091F00E94F80BB1E008950C94F80BA2
:10167000672F782F8827B85F39F0B93FCCF386956C
:1016800077956795B395D9F73EF4909580957095C9
:1016900061957F4F8F4F9F4F0895E89409C097FB46
:1016A0003EF490958095709561957F4F8F4F9F4F39
:1016B0009923A9F0F92F96E9BB279395F69587957D
:1016C00077956795B795F111F8CFFAF4BB0F11F440
:1016D00060FF1BC06F5F7F4F8F4F9F4F16C08823E7
:1016E00011F096E911C0772321F09EE8872F762F1D
:1016F00005C0662371F096E8862F70E060E02AF05E
:101700009A95660F771F881FDAF7880F9695879549
:1017100097F90895990F0008550FAA0BE0E8FEEF1E
:1017200016161706E807F907C0F012161306E407A5
:10173000F50798F0621B730B840B950B39F40A269E
:1017400061F0232B242B252B21F408950A2609F47C
:10175000A140A6958FEF811D811D089597F99F6780
:1017600080E870E060E008959FEF80EC0895002429
:101770000A941616170618060906089500240A94F6
:1017800012161306140605060895092E0394000C7C
:1017900011F4882352F0BB0F40F4BF2B11F460FF0B
:1017A00004C06F5F7F4F8F4F9F4F089557FD905834
:1017B000440F551F59F05F3F71F04795880F97FB15
:1017C000991F61F09F3F79F08795089512161306CF
:1017D0001406551FF2CF4695F1DF08C016161706FE
:1017E0001806991FF1CF8695710561050894089533
:1017F000E894BB2766277727CB0197F908950E94C5
:101800008A0B08F48FEF08950E94170C0C94C50BF7
:101810000E94B70B38F00E94BE0B20F0952311F008
:101820000C94AE0B0C94B40B11240C94F90B0E9485
:10183000D60B70F3959FC1F3950F50E0551F629F33
:10184000F001729FBB27F00DB11D639FAA27F00D19
:10185000B11DAA1F649F6627B00DA11D661F829F40
:101860002227B00DA11D621F739FB00DA11D621F25
:10187000839FA00D611D221F749F3327A00D611D42
:10188000231F849F600D211D822F762F6A2F112424
:101890009F5750409AF0F1F088234AF0EE0FFF1F57
:1018A000BB1F661F771F881F91505040A9F79E3FAE
:1018B000510580F00C94AE0B0C94F90B5F3FE4F3F0
:1018C000983ED4F3869577956795B795F795E79504
:1018D0009F5FC1F7FE2B880F911D9695879597F90D
:1018E00008950E948A0B880B990B0895AA1BBB1BB5
:1018F00051E107C0AA1FBB1FA617B70710F0A61B10
:10190000B70B881F991F5A95A9F780959095BC0130
:10191000CD01089597FB072E16F4009407D077FDAC
:1019200009D00E94760C07FC05D03EF49095819575
:101930009F4F0895709561957F4F0895A1E21A2EEB
:10194000AA1BBB1BFD010DC0AA1FBB1FEE1FFF1F63
:10195000A217B307E407F50720F0A21BB30BE40BB3
:10196000F50B661F771F881F991F1A9469F76095FA
:101970007095809590959B01AC01BD01CF010895B4
:10198000052E97FB1EF400940E94D70C57FD07D03C
:101990000E949E0C07FC03D04EF40C94D70C50957B
:1019A0004095309521953F4F4F4F5F4F089590954B
:1019B0008095709561957F4F8F4F9F4F0895EE0FE3
:1019C000FF1F0590F491E02D09940F931F93CF937F
:1019D000DF938230910510F482E090E0E0916102A3
:1019E000F091620230E020E0B0E0A0E0309799F49E
:1019F0002115310509F44AC0281B390B2430310563
:101A0000D8F58A819B816115710589F1FB0193836A
:101A10008283FE0111C040815181028113814817E8
:101A20005907E0F04817590799F4109761F012969A
:101A30000C93129713961C933296CF01DF91CF919E
:101A40001F910F9108950093610210936202F4CFE9
:101A50002115310551F04217530738F0A901DB0178
:101A60009A01BD01DF01F801C1CFEF01F9CF9093D9
:101A7000620280936102CDCFFE01E20FF31F8193DA
:101A800091932250310939832883D7CF20915F0267
:101A900030916002232B41F4209102013091030127
:101AA0003093600220935F02209100013091010188
:101AB0002115310541F42DB73EB7409104015091F5
:101AC0000501241B350BE0915F02F0916002E217E3
:101AD000F307A0F42E1B3F0B2817390778F0AC0151
:101AE0004E5F5F4F2417350748F04E0F5F1F50932E
:101AF000600240935F02819391939FCFF0E0E0E01A
:101B00009CCFCF93DF930097E9F0FC0132971382CB
:101B10001282A0916102B0916202ED0130E020E0FA
:101B20001097A1F420813181820F931F20915F02D1
:101B3000309160022817390709F061C0F093600204
:101B4000E0935F02DF91CF910895EA01CE17DF079E
:101B5000E8F54A815B819E0141155105B1F7E90124
:101B6000FB83EA8349915991C40FD51FEC17FD07F8
:101B700061F4808191810296840F951FE901998318
:101B80008883828193819B838A83F0E0E0E01296D0
:101B90008D919C9113970097B9F52D913C911197D8
:101BA000CD010296820F931F20915F023091600257
:101BB0002817390739F6309751F5109262021092C2
:101BC0006102B0936002A0935F02BCCFD383C28353
:101BD00040815181840F951FC817D90761F44E5F6A
:101BE0005F4F88819981480F591F518340838A81B3
:101BF0009B81938382832115310509F0B0CFF09347
:101C00006202E09361029ECFFD01DC01C0CF13822E
:081C10001282D7CFF894FFCF38
:101C1800000063028000000000004601A600D30017
:101C280093010401E200F600000000008903A60009
:101C38003A023902204865616C7468204D6F6E69FC
:101C4800746F72696E672053797374656D20210013
:101C58000D0A00434F56494420434152450020484D
:101C680065617468206973205765616C7468212008
:101C78000042504D3A20004865617468206973201D
:101C88005765616C7468210054656D706572617484
:101C98007572653A20006E616E00696E66006F7637
:021CA8006600D4
:00000001FF
